{
  "address": "0x9F8dDFb45852AC3df690FB0466733Be28E69E8F9",
  "abi": [
    {
      "inputs": [
        {
          "internalType": "address",
          "name": "_owner",
          "type": "address"
        }
      ],
      "stateMutability": "nonpayable",
      "type": "constructor"
    },
    {
      "inputs": [
        {
          "internalType": "uint32",
          "name": "",
          "type": "uint32"
        }
      ],
      "name": "addressMapping",
      "outputs": [
        {
          "internalType": "address",
          "name": "",
          "type": "address"
        }
      ],
      "stateMutability": "view",
      "type": "function"
    },
    {
      "inputs": [
        {
          "internalType": "uint32",
          "name": "",
          "type": "uint32"
        }
      ],
      "name": "attestationMapping",
      "outputs": [
        {
          "internalType": "uint32",
          "name": "",
          "type": "uint32"
        }
      ],
      "stateMutability": "view",
      "type": "function"
    },
    {
      "inputs": [
        {
          "internalType": "uint256",
          "name": "value",
          "type": "uint256"
        }
      ],
      "name": "claim",
      "outputs": [],
      "stateMutability": "nonpayable",
      "type": "function"
    },
    {
      "inputs": [
        {
          "internalType": "uint32",
          "name": "",
          "type": "uint32"
        }
      ],
      "name": "claimsMapping",
      "outputs": [
        {
          "internalType": "uint256",
          "name": "",
          "type": "uint256"
        }
      ],
      "stateMutability": "view",
      "type": "function"
    },
    {
      "inputs": [
        {
          "internalType": "uint32[]",
          "name": "missedAttestationValidatorColl",
          "type": "uint32[]"
        }
      ],
      "name": "epochEnd",
      "outputs": [],
      "stateMutability": "nonpayable",
      "type": "function"
    },
    {
      "inputs": [],
      "name": "genesisBlockNumber",
      "outputs": [
        {
          "internalType": "uint256",
          "name": "",
          "type": "uint256"
        }
      ],
      "stateMutability": "view",
      "type": "function"
    },
    {
      "inputs": [],
      "name": "getPendingValidatorColl",
      "outputs": [
        {
          "internalType": "uint32[]",
          "name": "",
          "type": "uint32[]"
        }
      ],
      "stateMutability": "view",
      "type": "function"
    },
    {
      "inputs": [],
      "name": "getRegisteredValidatorColl",
      "outputs": [
        {
          "internalType": "uint32[]",
          "name": "",
          "type": "uint32[]"
        }
      ],
      "stateMutability": "view",
      "type": "function"
    },
    {
      "inputs": [
        {
          "internalType": "address",
          "name": "",
          "type": "address"
        }
      ],
      "name": "identityMapping",
      "outputs": [
        {
          "internalType": "uint32",
          "name": "",
          "type": "uint32"
        }
      ],
      "stateMutability": "view",
      "type": "function"
    },
    {
      "inputs": [],
      "name": "owner",
      "outputs": [
        {
          "internalType": "address",
          "name": "",
          "type": "address"
        }
      ],
      "stateMutability": "view",
      "type": "function"
    },
    {
      "inputs": [
        {
          "internalType": "uint256",
          "name": "",
          "type": "uint256"
        }
      ],
      "name": "pendingValidatorColl",
      "outputs": [
        {
          "internalType": "uint32",
          "name": "",
          "type": "uint32"
        }
      ],
      "stateMutability": "view",
      "type": "function"
    },
    {
      "inputs": [
        {
          "internalType": "uint32",
          "name": "validatorReference",
          "type": "uint32"
        }
      ],
      "name": "register",
      "outputs": [],
      "stateMutability": "nonpayable",
      "type": "function"
    },
    {
      "inputs": [
        {
          "internalType": "uint256",
          "name": "",
          "type": "uint256"
        }
      ],
      "name": "registeredValidatorColl",
      "outputs": [
        {
          "internalType": "uint32",
          "name": "",
          "type": "uint32"
        }
      ],
      "stateMutability": "view",
      "type": "function"
    },
    {
      "stateMutability": "payable",
      "type": "receive"
    }
  ],
  "transactionHash": "0x0867b2207e2e563906cf964762ec2ecbd9112e6f3a4aa05e840c4c1fd2b474fb",
  "args": [
    "0xF7a664917aAD176159E25ba4487b2EE0b031d671"
  ],
  "numDeployments": 1,
  "solcInputHash": "826a4cb0f67789973abcc4693cd05c98",
  "bytecode": "0x60a060405260008055600780546001600160c01b0319167420a1e860d34a0d426f4159cb4221f9023d7341befb17905534801561003b57600080fd5b506040516115d73803806115d783398101604081905261005a9161006b565b6001600160a01b031660805261009b565b60006020828403121561007d57600080fd5b81516001600160a01b038116811461009457600080fd5b9392505050565b6080516115216100b6600039600061098501526115216000f3fe6080604052600436106100c65760003560e01c80638da5cb5b1161007f578063c35a315c11610059578063c35a315c14610a12578063ead6051714610a32578063f25935c114610a68578063f6fd5de214610a9557600080fd5b80638da5cb5b14610973578063903f47bd146109bf578063c2b79089146109df57600080fd5b80630356fe3a14610880578063086ed521146108a9578063130d7906146108cb578063379607f5146108eb5780637708219b1461090b57806379b0ec2a1461092b57600080fd5b3661087b576101026040518060400160405280601681526020017539ba30b93a103932b1b2b4bb3290333ab731ba34b7b760511b815250610aaa565b60005415801590610114575060025415155b156105f65761014e60405180604001604052806013815260200172031b7b73a3930b1ba103130b630b731b2901e9606d1b81525047610af0565b4760005b6002548110156101d157600360006002838154811061017357610173611088565b90600052602060002090600891828204019190066004029054906101000a900463ffffffff1663ffffffff1663ffffffff16815260200190815260200160002054826101bf91906110b4565b91506101ca816110cd565b9050610152565b5061020a6040518060400160405280601681526020017503b30b63ab2903a37903234b9ba3934b13aba32901e960551b81525082610af0565b6000805461021890436110b4565b905061025060405180604001604052806014815260200173038ba3ca13637b1b5b9a4b72832b934b7b2101e960651b81525082610af0565b6000805b6002548110156102ca57600460006002838154811061027557610275611088565b6000918252602080832060088304015463ffffffff60046007909416939093026101000a90048216845283019390935260409091019020546102b89116836110e6565b91506102c3816110cd565b9050610254565b506102ef60405180606001604052806021815260200161144c60219139600254610af0565b6103346040518060400160405280601d81526020017f746f74616c5174794d69737365644174746573746174696f6e73203d200000008152508263ffffffff16610af0565b60025460009063ffffffff83169061034c908561110a565b61035691906110b4565b6103609085611121565b90506103a16040518060400160405280601c81526020017f76616c7565506572426c6f636b416e6456616c696461746f72203d200000000081525082610af0565b60005b6002548110156105f05761043c6040518060600160405280602281526020016114ca6022913982604051806040016040528060038152602001620101e960ed1b81525060046000600287815481106103fe576103fe611088565b6000918252602080832060088304015463ffffffff60046007909416939093026101000a900482168452830193909352604090910190205416610b39565b81600460006002848154811061045457610454611088565b6000918252602080832060088304015463ffffffff60046007909416939093026101000a90048216845283019390935260409091019020546104979116866110b4565b6104a1919061110a565b60036000600284815481106104b8576104b8611088565b90600052602060002090600891828204019190066004029054906101000a900463ffffffff1663ffffffff1663ffffffff16815260200190815260200160002060008282546105079190611143565b925050819055506105e06040518060400160405280600981526020016803b30b63ab29037b3160bd1b815250600360006002858154811061054a5761054a611088565b90600052602060002090600891828204019190066004029054906101000a900463ffffffff1663ffffffff1663ffffffff1681526020019081526020016000205460405180606001604052806021815260200161142b60219139600285815481106105b7576105b7611088565b6000918252602090912060088204015460079091166004026101000a900463ffffffff16610b39565b6105e9816110cd565b90506103a4565b50505050505b436000819055604080518082019091526015815274033b2b732b9b4b9a13637b1b5a73ab6b132b9101e9605d1b602082015261063191610af0565b60015460000361065e5761065c6040518060600160405280603c815260200161146d603c9139610aaa565b005b60408051808201909152601e81527f70656e64696e6756616c696461746f72436f6c6c2e6c656e677468203d200000602082015260015461069f9190610af0565b600180546000916106af916110b4565b90505b600081126108455761074460405180604001604052806011815260200170036b7bb34b733903b30b634b230ba37b91607d1b815250600183815481106106fa576106fa611088565b90600052602060002090600891828204019190066004029054906101000a900463ffffffff1663ffffffff166040518060600160405280602181526020016114a960219139610b88565b60026001828154811061075957610759611088565b600091825260208083206008808404909101548554600181018755958552938290209085040180546007958616600490810261010090810a63ffffffff9890961691909102900a909404851683029290940219909216179091556040805160608101909152602f8082526107d3926113fc90830139610aaa565b60018054806107e4576107e4611156565b60019003818190600052602060002090600891828204019190066004026101000a81549063ffffffff021916905590556108356040518060600160405280602e81526020016113a5602e9139610aaa565b61083e8161116c565b90506106b2565b5061065c6040518060400160405280601481526020017332b732103932b1b2b4bb3290333ab731ba34b7b760611b815250610aaa565b600080fd5b34801561088c57600080fd5b5061089660005481565b6040519081526020015b60405180910390f35b3480156108b557600080fd5b506108be610bd4565b6040516108a09190611189565b3480156108d757600080fd5b5061065c6108e63660046111d3565b610c58565b3480156108f757600080fd5b5061065c610906366004611200565b610d7c565b34801561091757600080fd5b5061065c610926366004611219565b610ecf565b34801561093757600080fd5b5061095e61094636600461128e565b60066020526000908152604090205463ffffffff1681565b60405163ffffffff90911681526020016108a0565b34801561097f57600080fd5b506109a77f000000000000000000000000000000000000000000000000000000000000000081565b6040516001600160a01b0390911681526020016108a0565b3480156109cb57600080fd5b5061095e6109da366004611200565b610fbc565b3480156109eb57600080fd5b5061095e6109fa3660046111d3565b60046020526000908152604090205463ffffffff1681565b348015610a1e57600080fd5b5061095e610a2d366004611200565b610ff6565b348015610a3e57600080fd5b506109a7610a4d3660046111d3565b6005602052600090815260409020546001600160a01b031681565b348015610a7457600080fd5b50610896610a833660046111d3565b60036020526000908152604090205481565b348015610aa157600080fd5b506108be611006565b610aed81604051602401610abe91906112fd565b60408051601f198184030181529190526020810180516001600160e01b031663104c13eb60e21b179052611063565b50565b610b358282604051602401610b06929190611310565b60408051601f198184030181529190526020810180516001600160e01b0316632d839cb360e21b179052611063565b5050565b610b8284848484604051602401610b539493929190611332565b60408051601f198184030181529190526020810180516001600160e01b031663c67ea9d160e01b179052611063565b50505050565b610bcf838383604051602401610ba09392919061136f565b60408051601f198184030181529190526020810180516001600160e01b0316635970e08960e01b179052611063565b505050565b60606001805480602002602001604051908101604052809291908181526020018280548015610c4e57602002820191906000526020600020906000905b82829054906101000a900463ffffffff1663ffffffff1681526020019060040190602082600301049283019260010382029150808411610c115790505b5050505050905090565b63ffffffff8116600081815260036020908152604080832083905560048252808320805463ffffffff19908116909155338085526006845282852080549092168617909155848452600583529281902080546001600160a01b031916909317909255815180830183526011815270030b23234b733903b30b634b230ba37b91607d1b818301528251808401909352601e83527f20746f207468652070656e64696e672076616c696461746f72206c697374000091830191909152610d1d929091610b88565b6001805480820182556000919091527fb10e2d527612073b26eecdfd717e6a320cf44b4afac2b0732d9fcbe2b7fa0cf66008820401805460079092166004026101000a63ffffffff818102199093169390921691909102919091179055565b3360009081526006602090815260408083205463ffffffff16835260039091529020548110610e065760405162461bcd60e51b815260206004820152602b60248201527f616d6f756e7420746f207769746864726177206578636565647320636c61696d60448201526a18589b1948185b5bdd5b9d60aa1b60648201526084015b60405180910390fd5b3360009081526006602090815260408083205463ffffffff168352600390915281208054839290610e389084906110b4565b90915550506040516000908190339084908381818185875af1925050503d8060008114610e81576040519150601f19603f3d011682016040523d82523d6000602084013e610e86565b606091505b509150915081610bcf5760405162461bcd60e51b81526020600482015260146024820152732330b4b632b2103a379039b2b7321022ba3432b960611b6044820152606401610dfd565b60005b81811015610bcf57610f286040518060600160405280602981526020016113d360299139848484818110610f0857610f08611088565b9050602002016020810190610f1d91906111d3565b63ffffffff16610af0565b600754600160a01b900463ffffffff1660046000858585818110610f4e57610f4e611088565b9050602002016020810190610f6391906111d3565b63ffffffff90811682526020820192909252604001600090812080549092610f8d918591166110e6565b92506101000a81548163ffffffff021916908363ffffffff16021790555080610fb5906110cd565b9050610ed2565b60028181548110610fcc57600080fd5b9060005260206000209060089182820401919006600402915054906101000a900463ffffffff1681565b60018181548110610fcc57600080fd5b60606002805480602002602001604051908101604052809291908181526020018280548015610c4e576000918252602091829020805463ffffffff168452908202830192909160049101808411610c115790505050505050905090565b610aed8160006a636f6e736f6c652e6c6f679050600080835160208501845afa505050565b634e487b7160e01b600052603260045260246000fd5b634e487b7160e01b600052601160045260246000fd5b818103818111156110c7576110c761109e565b92915050565b6000600182016110df576110df61109e565b5060010190565b63ffffffff8181168382160190808211156111035761110361109e565b5092915050565b80820281158282048414176110c7576110c761109e565b60008261113e57634e487b7160e01b600052601260045260246000fd5b500490565b808201808211156110c7576110c761109e565b634e487b7160e01b600052603160045260246000fd5b6000600160ff1b82016111815761118161109e565b506000190190565b6020808252825182820181905260009190848201906040850190845b818110156111c757835163ffffffff16835292840192918401916001016111a5565b50909695505050505050565b6000602082840312156111e557600080fd5b813563ffffffff811681146111f957600080fd5b9392505050565b60006020828403121561121257600080fd5b5035919050565b6000806020838503121561122c57600080fd5b823567ffffffffffffffff8082111561124457600080fd5b818501915085601f83011261125857600080fd5b81358181111561126757600080fd5b8660208260051b850101111561127c57600080fd5b60209290920196919550909350505050565b6000602082840312156112a057600080fd5b81356001600160a01b03811681146111f957600080fd5b6000815180845260005b818110156112dd576020818501810151868301820152016112c1565b506000602082860101526020601f19601f83011685010191505092915050565b6020815260006111f960208301846112b7565b60408152600061132360408301856112b7565b90508260208301529392505050565b60808152600061134560808301876112b7565b856020840152828103604084015261135d81866112b7565b91505082606083015295945050505050565b60608152600061138260608301866112b7565b846020840152828103604084015261139a81856112b7565b969550505050505056fe72656d6f7665642076616c696461746f722066726f6d207468652070656e64696756616c696461746f72436f6c6c6d6973736564206174746573746174696f6e20666f722076616c696461746f722077697468206964207075736865642076616c696461746f7220746f20746865207265676973746572656456616c696461746f72436f6c6c2063616e206e6f7720626520636c61696d65642062792076616c696461746f72207265676973746572656456616c696461746f72436f6c6c2e6c656e677468203d2072657475726e696e672066726f6d2066756e6374696f6e20626563617573652070656e64696756616c696461746f72436f6c6c20697320656d70747920746f2074686520726567697374657265642076616c696461746f72206c6973746d6973736564206174746573746174696f6e7320666f722076616c696461746f7220a264697066735822122044159ea99db8e3a4fc71f9961bba93dfcfab6fa78dadc48fa84124a8e5b1ff3964736f6c63430008110033",
  "devdoc": {
    "author": "BuidlGuidl",
    "kind": "dev",
    "methods": {},
    "version": 1
  },
  "userdoc": {
    "kind": "user",
    "methods": {
      "register(uint32)": {
        "notice": "Function that allows a solo staker to register"
      }
    },
    "notice": "A smart contract that allows changing a state variable of the contract and tracking the changes It also allows the owner to withdraw the Ether in the contract",
    "version": 1
  },
  "storageLayout": {
    "storage": [
      {
        "astId": 8,
        "contract": "contracts/YourContract.sol:YourContract",
        "label": "genesisBlockNumber",
        "offset": 0,
        "slot": "0",
        "type": "t_uint256"
      },
      {
        "astId": 11,
        "contract": "contracts/YourContract.sol:YourContract",
        "label": "pendingValidatorColl",
        "offset": 0,
        "slot": "1",
        "type": "t_array(t_uint32)dyn_storage"
      },
      {
        "astId": 14,
        "contract": "contracts/YourContract.sol:YourContract",
        "label": "registeredValidatorColl",
        "offset": 0,
        "slot": "2",
        "type": "t_array(t_uint32)dyn_storage"
      },
      {
        "astId": 18,
        "contract": "contracts/YourContract.sol:YourContract",
        "label": "claimsMapping",
        "offset": 0,
        "slot": "3",
        "type": "t_mapping(t_uint32,t_uint256)"
      },
      {
        "astId": 22,
        "contract": "contracts/YourContract.sol:YourContract",
        "label": "attestationMapping",
        "offset": 0,
        "slot": "4",
        "type": "t_mapping(t_uint32,t_uint32)"
      },
      {
        "astId": 26,
        "contract": "contracts/YourContract.sol:YourContract",
        "label": "addressMapping",
        "offset": 0,
        "slot": "5",
        "type": "t_mapping(t_uint32,t_address)"
      },
      {
        "astId": 30,
        "contract": "contracts/YourContract.sol:YourContract",
        "label": "identityMapping",
        "offset": 0,
        "slot": "6",
        "type": "t_mapping(t_address,t_uint32)"
      },
      {
        "astId": 33,
        "contract": "contracts/YourContract.sol:YourContract",
        "label": "backEndWalletAddress",
        "offset": 0,
        "slot": "7",
        "type": "t_address"
      },
      {
        "astId": 36,
        "contract": "contracts/YourContract.sol:YourContract",
        "label": "qtyBlocksPerEpoch",
        "offset": 20,
        "slot": "7",
        "type": "t_uint32"
      }
    ],
    "types": {
      "t_address": {
        "encoding": "inplace",
        "label": "address",
        "numberOfBytes": "20"
      },
      "t_array(t_uint32)dyn_storage": {
        "base": "t_uint32",
        "encoding": "dynamic_array",
        "label": "uint32[]",
        "numberOfBytes": "32"
      },
      "t_mapping(t_address,t_uint32)": {
        "encoding": "mapping",
        "key": "t_address",
        "label": "mapping(address => uint32)",
        "numberOfBytes": "32",
        "value": "t_uint32"
      },
      "t_mapping(t_uint32,t_address)": {
        "encoding": "mapping",
        "key": "t_uint32",
        "label": "mapping(uint32 => address)",
        "numberOfBytes": "32",
        "value": "t_address"
      },
      "t_mapping(t_uint32,t_uint256)": {
        "encoding": "mapping",
        "key": "t_uint32",
        "label": "mapping(uint32 => uint256)",
        "numberOfBytes": "32",
        "value": "t_uint256"
      },
      "t_mapping(t_uint32,t_uint32)": {
        "encoding": "mapping",
        "key": "t_uint32",
        "label": "mapping(uint32 => uint32)",
        "numberOfBytes": "32",
        "value": "t_uint32"
      },
      "t_uint256": {
        "encoding": "inplace",
        "label": "uint256",
        "numberOfBytes": "32"
      },
      "t_uint32": {
        "encoding": "inplace",
        "label": "uint32",
        "numberOfBytes": "4"
      }
    }
  }
}