{
  "address": "0x9F8dDFb45852AC3df690FB0466733Be28E69E8F9",
  "abi": [
    {
      "inputs": [
        {
          "internalType": "address",
          "name": "_owner",
          "type": "address"
        }
      ],
      "stateMutability": "nonpayable",
      "type": "constructor"
    },
    {
      "inputs": [
        {
          "internalType": "uint32",
          "name": "",
          "type": "uint32"
        }
      ],
      "name": "attestationMapping",
      "outputs": [
        {
          "internalType": "uint32",
          "name": "",
          "type": "uint32"
        }
      ],
      "stateMutability": "view",
      "type": "function"
    },
    {
      "inputs": [
        {
          "internalType": "uint256",
          "name": "value",
          "type": "uint256"
        }
      ],
      "name": "claim",
      "outputs": [],
      "stateMutability": "nonpayable",
      "type": "function"
    },
    {
      "inputs": [
        {
          "internalType": "uint32",
          "name": "",
          "type": "uint32"
        }
      ],
      "name": "claimsMapping",
      "outputs": [
        {
          "internalType": "uint256",
          "name": "",
          "type": "uint256"
        }
      ],
      "stateMutability": "view",
      "type": "function"
    },
    {
      "inputs": [
        {
          "internalType": "uint32[]",
          "name": "missedAssestationValidatorColl",
          "type": "uint32[]"
        }
      ],
      "name": "epochEnd",
      "outputs": [],
      "stateMutability": "nonpayable",
      "type": "function"
    },
    {
      "inputs": [],
      "name": "genesisBlockNumber",
      "outputs": [
        {
          "internalType": "uint256",
          "name": "",
          "type": "uint256"
        }
      ],
      "stateMutability": "view",
      "type": "function"
    },
    {
      "inputs": [
        {
          "internalType": "address",
          "name": "",
          "type": "address"
        }
      ],
      "name": "identityMapping",
      "outputs": [
        {
          "internalType": "uint32",
          "name": "",
          "type": "uint32"
        }
      ],
      "stateMutability": "view",
      "type": "function"
    },
    {
      "inputs": [],
      "name": "owner",
      "outputs": [
        {
          "internalType": "address",
          "name": "",
          "type": "address"
        }
      ],
      "stateMutability": "view",
      "type": "function"
    },
    {
      "inputs": [
        {
          "internalType": "uint256",
          "name": "",
          "type": "uint256"
        }
      ],
      "name": "pendingValidatorColl",
      "outputs": [
        {
          "internalType": "uint32",
          "name": "",
          "type": "uint32"
        }
      ],
      "stateMutability": "view",
      "type": "function"
    },
    {
      "inputs": [
        {
          "internalType": "uint32",
          "name": "validatorReference",
          "type": "uint32"
        }
      ],
      "name": "register",
      "outputs": [],
      "stateMutability": "nonpayable",
      "type": "function"
    },
    {
      "inputs": [
        {
          "internalType": "uint256",
          "name": "",
          "type": "uint256"
        }
      ],
      "name": "registeredValidatorColl",
      "outputs": [
        {
          "internalType": "uint32",
          "name": "",
          "type": "uint32"
        }
      ],
      "stateMutability": "view",
      "type": "function"
    },
    {
      "stateMutability": "payable",
      "type": "receive"
    }
  ],
  "transactionHash": "0x6cea24bdff07f78fe1758ae1a086d23ba5400f3d1235d4e2d699e6e84bfa1f00",
  "args": [
    "0xF7a664917aAD176159E25ba4487b2EE0b031d671"
  ],
  "numDeployments": 1,
  "solcInputHash": "cb0979f6d6b0826c417059048426cc9b",
  "bytecode": "0x60a0604052600080556006805463ffffffff1916600117905534801561002457600080fd5b5060405161130838038061130883398101604081905261004391610054565b6001600160a01b0316608052610084565b60006020828403121561006657600080fd5b81516001600160a01b038116811461007d57600080fd5b9392505050565b60805161126961009f60003960006108ff01526112696000f3fe6080604052600436106100955760003560e01c80638da5cb5b116100595780638da5cb5b146108ed578063903f47bd14610939578063c2b7908914610959578063c35a315c1461098c578063f25935c1146109ac57600080fd5b80630356fe3a1461081c578063130d790614610845578063379607f5146108655780637708219b1461088557806379b0ec2a146108a557600080fd5b36610817576100d16040518060400160405280601681526020017539ba30b93a103932b1b2b4bb3290333ab731ba34b7b760511b8152506109d9565b600054156105925761010e60405180604001604052806013815260200172031b7b73a3930b1ba103130b630b731b2901e9606d1b81525047610a1f565b4760005b60025481101561019157600360006002838154811061013357610133610e64565b90600052602060002090600891828204019190066004029054906101000a900463ffffffff1663ffffffff1663ffffffff168152602001908152602001600020548261017f9190610e90565b915061018a81610ea9565b9050610112565b506101ca6040518060400160405280601681526020017503b30b63ab2903a37903234b9ba3934b13aba32901e960551b81525082610a1f565b600080546101d89043610e90565b905061021060405180604001604052806014815260200173038ba3ca13637b1b5b9a4b72832b934b7b2101e960651b81525082610a1f565b6000805b60025481101561028a57600460006002838154811061023557610235610e64565b6000918252602080832060088304015463ffffffff60046007909416939093026101000a9004821684528301939093526040909101902054610278911683610ec2565b915061028381610ea9565b9050610214565b506102d06040518060400160405280601d81526020017f746f74616c5174794d69737365644174746573746174696f6e73203d200000008152508263ffffffff16610a1f565b60025460009063ffffffff8316906102e89085610ee6565b6102f29190610e90565b6102fc9085610efd565b905061033d6040518060400160405280601c81526020017f76616c7565506572426c6f636b416e6456616c696461746f72203d200000000081525082610a1f565b60005b60025481101561058c576103d86040518060600160405280602281526020016112126022913982604051806040016040528060038152602001620101e960ed1b815250600460006002878154811061039a5761039a610e64565b6000918252602080832060088304015463ffffffff60046007909416939093026101000a900482168452830193909352604090910190205416610a68565b8160046000600284815481106103f0576103f0610e64565b6000918252602080832060088304015463ffffffff60046007909416939093026101000a9004821684528301939093526040909101902054610433911686610e90565b61043d9190610ee6565b600360006002848154811061045457610454610e64565b90600052602060002090600891828204019190066004029054906101000a900463ffffffff1663ffffffff1663ffffffff16815260200190815260200160002060008282546104a39190610f1f565b9250508190555061057c6040518060400160405280600981526020016803b30b63ab29037b3160bd1b81525060036000600285815481106104e6576104e6610e64565b90600052602060002090600891828204019190066004029054906101000a900463ffffffff1663ffffffff1663ffffffff16815260200190815260200160002054604051806060016040528060218152602001611194602191396002858154811061055357610553610e64565b6000918252602090912060088204015460079091166004026101000a900463ffffffff16610a68565b61058581610ea9565b9050610340565b50505050505b436000819055604080518082019091526015815274033b2b732b9b4b9a13637b1b5a73ab6b132b9101e9605d1b60208201526105cd91610a1f565b6001546000036105fa576105f86040518060600160405280603c81526020016111b5603c91396109d9565b005b60408051808201909152601e81527f70656e64696e6756616c696461746f72436f6c6c2e6c656e677468203d200000602082015260015461063b9190610a1f565b6001805460009161064b91610e90565b90505b600081126107e1576106e060405180604001604052806011815260200170036b7bb34b733903b30b634b230ba37b91607d1b8152506001838154811061069657610696610e64565b90600052602060002090600891828204019190066004029054906101000a900463ffffffff1663ffffffff166040518060600160405280602181526020016111f160219139610ab7565b6002600182815481106106f5576106f5610e64565b600091825260208083206008808404909101548554600181018755958552938290209085040180546007958616600490810261010090810a63ffffffff9890961691909102900a909404851683029290940219909216179091556040805160608101909152602f80825261076f92611165908301396109d9565b600180548061078057610780610f32565b60019003818190600052602060002090600891828204019190066004026101000a81549063ffffffff021916905590556107d16040518060600160405280602e8152602001611137602e91396109d9565b6107da81610f48565b905061064e565b506105f86040518060400160405280601481526020017332b732103932b1b2b4bb3290333ab731ba34b7b760611b8152506109d9565b600080fd5b34801561082857600080fd5b5061083260005481565b6040519081526020015b60405180910390f35b34801561085157600080fd5b506105f8610860366004610f65565b610b03565b34801561087157600080fd5b506105f8610880366004610f92565b610c0a565b34801561089157600080fd5b506105f86108a0366004610fab565b610d5d565b3480156108b157600080fd5b506108d86108c0366004611020565b60056020526000908152604090205463ffffffff1681565b60405163ffffffff909116815260200161083c565b3480156108f957600080fd5b506109217f000000000000000000000000000000000000000000000000000000000000000081565b6040516001600160a01b03909116815260200161083c565b34801561094557600080fd5b506108d8610954366004610f92565b610df5565b34801561096557600080fd5b506108d8610974366004610f65565b60046020526000908152604090205463ffffffff1681565b34801561099857600080fd5b506108d86109a7366004610f92565b610e2f565b3480156109b857600080fd5b506108326109c7366004610f65565b60036020526000908152604090205481565b610a1c816040516024016109ed919061108f565b60408051601f198184030181529190526020810180516001600160e01b031663104c13eb60e21b179052610e3f565b50565b610a648282604051602401610a359291906110a2565b60408051601f198184030181529190526020810180516001600160e01b0316632d839cb360e21b179052610e3f565b5050565b610ab184848484604051602401610a8294939291906110c4565b60408051601f198184030181529190526020810180516001600160e01b031663c67ea9d160e01b179052610e3f565b50505050565b610afe838383604051602401610acf93929190611101565b60408051601f198184030181529190526020810180516001600160e01b0316635970e08960e01b179052610e3f565b505050565b63ffffffff8116600081815260036020908152604080832083905560048252808320805463ffffffff19908116909155338452600583529281902080549093168417909255815180830183526011815270030b23234b733903b30b634b230ba37b91607d1b818301528251808401909352601e83527f20746f207468652070656e64696e672076616c696461746f72206c697374000091830191909152610bab929091610ab7565b6001805480820182556000919091527fb10e2d527612073b26eecdfd717e6a320cf44b4afac2b0732d9fcbe2b7fa0cf66008820401805460079092166004026101000a63ffffffff818102199093169390921691909102919091179055565b3360009081526005602090815260408083205463ffffffff16835260039091529020548110610c945760405162461bcd60e51b815260206004820152602b60248201527f616d6f756e7420746f207769746864726177206578636565647320636c61696d60448201526a18589b1948185b5bdd5b9d60aa1b60648201526084015b60405180910390fd5b3360009081526005602090815260408083205463ffffffff168352600390915281208054839290610cc6908490610e90565b90915550506040516000908190339084908381818185875af1925050503d8060008114610d0f576040519150601f19603f3d011682016040523d82523d6000602084013e610d14565b606091505b509150915081610afe5760405162461bcd60e51b81526020600482015260146024820152732330b4b632b2103a379039b2b7321022ba3432b960611b6044820152606401610c8b565b60005b81811015610afe5760065463ffffffff1660046000858585818110610d8757610d87610e64565b9050602002016020810190610d9c9190610f65565b63ffffffff90811682526020820192909252604001600090812080549092610dc691859116610ec2565b92506101000a81548163ffffffff021916908363ffffffff16021790555080610dee90610ea9565b9050610d60565b60028181548110610e0557600080fd5b9060005260206000209060089182820401919006600402915054906101000a900463ffffffff1681565b60018181548110610e0557600080fd5b610a1c8160006a636f6e736f6c652e6c6f679050600080835160208501845afa505050565b634e487b7160e01b600052603260045260246000fd5b634e487b7160e01b600052601160045260246000fd5b81810381811115610ea357610ea3610e7a565b92915050565b600060018201610ebb57610ebb610e7a565b5060010190565b63ffffffff818116838216019080821115610edf57610edf610e7a565b5092915050565b8082028115828204841417610ea357610ea3610e7a565b600082610f1a57634e487b7160e01b600052601260045260246000fd5b500490565b80820180821115610ea357610ea3610e7a565b634e487b7160e01b600052603160045260246000fd5b6000600160ff1b8201610f5d57610f5d610e7a565b506000190190565b600060208284031215610f7757600080fd5b813563ffffffff81168114610f8b57600080fd5b9392505050565b600060208284031215610fa457600080fd5b5035919050565b60008060208385031215610fbe57600080fd5b823567ffffffffffffffff80821115610fd657600080fd5b818501915085601f830112610fea57600080fd5b813581811115610ff957600080fd5b8660208260051b850101111561100e57600080fd5b60209290920196919550909350505050565b60006020828403121561103257600080fd5b81356001600160a01b0381168114610f8b57600080fd5b6000815180845260005b8181101561106f57602081850181015186830182015201611053565b506000602082860101526020601f19601f83011685010191505092915050565b602081526000610f8b6020830184611049565b6040815260006110b56040830185611049565b90508260208301529392505050565b6080815260006110d76080830187611049565b85602084015282810360408401526110ef8186611049565b91505082606083015295945050505050565b6060815260006111146060830186611049565b846020840152828103604084015261112c8185611049565b969550505050505056fe72656d6f7665642076616c696461746f722066726f6d207468652070656e64696756616c696461746f72436f6c6c7075736865642076616c696461746f7220746f20746865207265676973746572656456616c696461746f72436f6c6c2063616e206e6f7720626520636c61696d65642062792076616c696461746f722072657475726e696e672066726f6d2066756e6374696f6e20626563617573652070656e64696756616c696461746f72436f6c6c20697320656d70747920746f2074686520726567697374657265642076616c696461746f72206c6973746d6973736564206174746573746174696f6e7320666f722076616c696461746f7220a2646970667358221220a39a3e49614f49ed960dadcca435a02867688c068230164152c8d60ba96b132d64736f6c63430008110033",
  "devdoc": {
    "author": "BuidlGuidl",
    "kind": "dev",
    "methods": {},
    "version": 1
  },
  "userdoc": {
    "kind": "user",
    "methods": {
      "claim(uint256)": {
        "notice": "Function that allows the owner to withdraw all the Ether in the contract The function can only be called by the owner of the contract as defined by the isOwner modifier"
      },
      "register(uint32)": {
        "notice": "Function that allows a solo staker to register"
      }
    },
    "notice": "A smart contract that allows changing a state variable of the contract and tracking the changes It also allows the owner to withdraw the Ether in the contract",
    "version": 1
  },
  "storageLayout": {
    "storage": [
      {
        "astId": 8,
        "contract": "contracts/YourContract.sol:YourContract",
        "label": "genesisBlockNumber",
        "offset": 0,
        "slot": "0",
        "type": "t_uint256"
      },
      {
        "astId": 11,
        "contract": "contracts/YourContract.sol:YourContract",
        "label": "pendingValidatorColl",
        "offset": 0,
        "slot": "1",
        "type": "t_array(t_uint32)dyn_storage"
      },
      {
        "astId": 14,
        "contract": "contracts/YourContract.sol:YourContract",
        "label": "registeredValidatorColl",
        "offset": 0,
        "slot": "2",
        "type": "t_array(t_uint32)dyn_storage"
      },
      {
        "astId": 18,
        "contract": "contracts/YourContract.sol:YourContract",
        "label": "claimsMapping",
        "offset": 0,
        "slot": "3",
        "type": "t_mapping(t_uint32,t_uint256)"
      },
      {
        "astId": 22,
        "contract": "contracts/YourContract.sol:YourContract",
        "label": "attestationMapping",
        "offset": 0,
        "slot": "4",
        "type": "t_mapping(t_uint32,t_uint32)"
      },
      {
        "astId": 26,
        "contract": "contracts/YourContract.sol:YourContract",
        "label": "identityMapping",
        "offset": 0,
        "slot": "5",
        "type": "t_mapping(t_address,t_uint32)"
      },
      {
        "astId": 29,
        "contract": "contracts/YourContract.sol:YourContract",
        "label": "qtyBlocksPerEpoch",
        "offset": 0,
        "slot": "6",
        "type": "t_uint32"
      }
    ],
    "types": {
      "t_address": {
        "encoding": "inplace",
        "label": "address",
        "numberOfBytes": "20"
      },
      "t_array(t_uint32)dyn_storage": {
        "base": "t_uint32",
        "encoding": "dynamic_array",
        "label": "uint32[]",
        "numberOfBytes": "32"
      },
      "t_mapping(t_address,t_uint32)": {
        "encoding": "mapping",
        "key": "t_address",
        "label": "mapping(address => uint32)",
        "numberOfBytes": "32",
        "value": "t_uint32"
      },
      "t_mapping(t_uint32,t_uint256)": {
        "encoding": "mapping",
        "key": "t_uint32",
        "label": "mapping(uint32 => uint256)",
        "numberOfBytes": "32",
        "value": "t_uint256"
      },
      "t_mapping(t_uint32,t_uint32)": {
        "encoding": "mapping",
        "key": "t_uint32",
        "label": "mapping(uint32 => uint32)",
        "numberOfBytes": "32",
        "value": "t_uint32"
      },
      "t_uint256": {
        "encoding": "inplace",
        "label": "uint256",
        "numberOfBytes": "32"
      },
      "t_uint32": {
        "encoding": "inplace",
        "label": "uint32",
        "numberOfBytes": "4"
      }
    }
  }
}